:020000040800F2
:10000000885400246D030008593500081134000895
:1000100011350008C1050008193C00080000000067
:10002000000000000000000000000000D1380008BF
:10003000A10C00080000000021360008013900086A
:100040008B0300088B0300088B0300088B03000858
:100050008B0300088B0300088B0300088B03000848
:100060008B0300088B0300088B0300088B03000838
:100070008B0300088B0300088B0300088B03000828
:100080008B0300088B0300088B0300088B03000818
:10009000D10C00088B030008E10C00088B0300085A
:1000A0008B030008A93A00088B0300088B030008A3
:1000B0008B0300088B0300088B0300088B030008E8
:1000C0008B0300088B0300088B0300088B030008D8
:1000D0008B0300088B0300088B0300088B030008C8
:1000E0008B0300088B030008000000008B0300084E
:1000F0008B0300088B0300088B0300088B030008A8
:100100008B0300088B0300088B0300088B03000897
:100110008B0300088B0300088B0300088B03000887
:100120008B0300088B0300088B0300088B03000877
:100130008B0300088B0300088B0300088B03000867
:1001400000000000000000000000000000000000AF
:100150008B0300088B0300088B0300088B03000847
:100160008B0300088B0300088B0300088B03000837
:100170008B0300088B0300088B03000800000000BD
:100180008B0300088B0300088B0300088B03000817
:100190008B0300088B0300088B0300088B03000807
:1001A0008B0300088B0300088B030008000000008D
:1001B0008B0300088B0300088B0300088B030008E7
:1001C0008B0300088B030008000000000000000003
:1001D00000000000000000008B0300080000000089
:1001E000000000000000000000000000000000000F
:1001F00000000000000000008B0300088B030008D3
:100200008B0300088B030008000000008B0300082C
:100210008B0300088B0300088B0300088B03000886
:100220008B030008000000008B03000800000000A2
:100230008B0300088B030008000000008B030008FC
:100240008B0300088B0300088B0300088B03000856
:100250008B0300088B0300088B0300088B03000846
:100260008B0300088B0300088B0300088B03000836
:100270008B0300088B0300088B03000800000000BC
:100280008B0300088B0300088B0300088B03000816
:10029000000000008B0300088B0300080000000032
:1002A000000000008B0300088B0300088B0300088C
:1002B0008B0300088B0300088B0300088B030008E6
:1002C0008B0300088B0300088B03000800F002F882
:1002D00000F03CF80AA090E8000C82448344AAF1A4
:1002E0000107DA4501D100F031F8AFF2090EBAE8A2
:1002F0000F0013F0010F18BFFB1A43F0010318475A
:10030000B05F0000D05F0000103A24BF78C878C109
:10031000FAD8520724BF30C830C144BF04680C600B
:10032000704700000023002400250026103A28BF53
:1003300078C1FBD8520728BF30C148BF0B60704757
:100340001FB505F01BFF1FBD10B510BD00F0FDF877
:100350001146FFF7F5FF03F097FC00F01BF903B41B
:10036000FFF7F2FF03BC00F023F900000A488047C2
:100370000A4880470A480047FEE7FEE7FEE7FEE737
:10038000FEE7FEE7FEE7FEE7FEE7FEE70548064973
:10039000064A074B70470000B10C0008D13900082D
:1003A000CD020008884E0024885400248850002480
:1003B00088500024032A40F2308010F0030C00F033
:1003C000158011F8013BBCF1020F624498BF11F88F
:1003D00001CB00F8013B38BF11F8013BA2F1040248
:1003E00098BF00F801CB38BF00F8013B11F00303C0
:1003F00000F07980083AC0F0088051F8043B083AD0
:1004000051F804CBA0E80810F5E7121D5CBF51F8C5
:10041000043B40F8043BAFF30080D20724BF11F83F
:10042000013B11F801CB48BF11F8012B24BF00F8A4
:10043000013B00F801CB48BF00F8012B704702F0E8
:10044000FF0343EA032242EA024200F024B84FF0DD
:1004500000020429C0F0128010F0030C00F01B8091
:10046000CCF1040CBCF1020F18BF00F8012BA8BF9F
:1004700020F8022BA1EB0C0100F00DB85FEAC17C63
:1004800024BF00F8012B00F8012B48BF00F8012B16
:1004900070474FF0000200B5134694469646203947
:1004A00022BFA0E80C50A0E80C50B1F12001BFF42D
:1004B000F7AF090728BFA0E80C5048BF0CC05DF893
:1004C00004EB890028BF40F8042B08BF704748BFE1
:1004D00020F8022B11F0804F18BF00F8012B704755
:1004E00070477047704710B5203AC0F00B80B1E8F4
:1004F0001850A0E81850B1E81850A0E81850203A59
:10050000BFF4F5AF5FEA027C24BFB1E81850A0E861
:10051000185044BF18C918C0BDE810405FEA827C7B
:1005200024BF51F8043B40F8043B08BF7047D20792
:1005300028BF31F8023B48BF11F8012B28BF20F833
:10054000023B48BF00F8012B7047754600F02CF8BD
:10055000AE4605006946534620F00700854618B0B0
:1005600020B5FFF713FFBDE820404FF000064FF025
:1005700000074FF000084FF0000BAC46ACE8C00994
:10058000ACE8C009ACE8C009ACE8C00921F007013B
:100590008D46704710B50446AFF300802046BDE895
:1005A0001040FFF7DCBE0000004870471800002430
:1005B00001491820ABBEFEE726000200704700008C
:1005C000FEE70000000000002DE9F04F89B040F286
:1005D000780440F2384540F24C480026C2F200440C
:1005E000E9464FF0080AC2F20045C2F200484FF057
:1005F000000B04E00BF1F00BBBF5707F66D004EB51
:100600000B07787810B3B878F978884216D0B878A4
:10061000F8703E833E84B86BF86107F1A00002F0E9
:10062000F7FF07F1C80002F0F3FF87F86F60A7F843
:100630006D60F87800281CBF01207870F8780428D5
:1006400005D8DFE800F00335393D41003E83242121
:100650004846FFF71EFF14F80B00CDF80CA00496D7
:100660000428069608960796029605D84FF400715E
:100670000091FE2104E000BF40F2FF110091F6213D
:1006800001EB40013A8B013855FA81F3C9B2120AE5
:10069000C0B25A7041F001023B8B0728AF5C6F5427
:1006A000AB54A7D8404649462A4600F0A1FBA1E733
:1006B000384600F039FACAE7384600F0B1F8C6E724
:1006C000384600F091FAC2E7388BC0E709B0BDE8C0
:1006D000F08F000000000000F0B581B02DED0C8B14
:1006E00040F2780440F2000E00250020C2F20044DF
:1006F00001214FF4807CC4F2873ECCF287354FF461
:10070000FA720023E618F033B3F5707F7070B070A2
:10071000F166A6F871C086F87310C6E91DE5C6F843
:10072000802086F88800C6E92300C6E92500C6F8BF
:100730009C0030833084B064A6F86000E2D10025CC
:100740000020012141F6FF7C4FF07E5EC4F21025AF
:1007500040F2FF1241F2941326182154F030013177
:10076000B0F5F06FA6F804C0C6E902E53261B382C5
:10077000F2D10023002041F6FF7C4FF07E5EC4F2F0
:1007800098134FF4007542F210710022261802F1FE
:1007900009072754F030B0F5F06F02F10102A6F816
:1007A00004C0C6E902E33561B182EFD1B1EE069A29
:1007B0004FF64045CFF6FF759FED138A9FED13AAC4
:1007C0009FED13BA9FED13CA9FED13DAB0EE480AFE
:1007D000F0EE4A0AB0EE4B1A661906F58C6001215C
:1007E00002F00AFFB0EE490AF0EE4C0AB0EE4D1AE4
:1007F00006F59160002102F0FFFEF035E6D1BDEC78
:100800000C8B01B0F0BD00BF295C8F3D6F12033A25
:10081000000000009A99993E0AD7233C000000008E
:1008200010B5044690ED020A90ED031A90ED072AE8
:10083000808822EE002A03EE100A22EE012AB8EE8A
:10084000433A22EE034A9FED4C2A84EE024ABDEE63
:10085000C44A84ED0B4A94ED0B4A94F87100B8EE4B
:10086000C44A002804F1A00084ED304A28D094ED59
:100870001E4A94ED1D5A24EE034AE16A25EE033A1E
:1008800020EE044A20EE030A21EE043A21EE000A8B
:1008900083EE021A80EE020ABDEEC11ABDEEC00A56
:1008A00011EE102A10EE103A9142A8BF0A46994262
:1008B000C8BF1A4600EE102AB8EEC00A84ED300A0E
:1008C00094ED120AB8EEC00A84ED310A02F048FE37
:1008D000B4F93C0094ED022A84ED3A0A01EE100AC4
:1008E00094F87200B8EEC11A22EE011A94ED032AB0
:1008F00021EE021A84ED3B1AC8B1BDEEC00AB4F96C
:100900008020012310EE100A012800EBE03181EA7B
:10091000E03109B2B8BFC3139142C8BF03FB02F074
:1009200000B200EE100AB8EEC00A84ED3A0A04F1F3
:10093000C80002F015FEB4F91400B4F91810012330
:1009400001EE101AB8EEC11A30EE010ABDEEC00A6F
:1009500010EE101A2183B4F91810012901EBE132CD
:1009600082EAE13212B2B8BFCB138242C8BF03FBA6
:1009700000F1218310BD00BF0000B443000000005F
:10098000000440F0C980B1F5007F40F2C580B1F5A8
:10099000027F00F2C180C8B2042888BF7047B0B59A
:1009A0000138140C120A2146C0EB001C40F27800FA
:1009B00062F31F21C2F2004000EB0C10B3EE031AE9
:1009C000844602464FEA134EA0F84410190A63F316
:1009D00007042CF83C4F61F31F2E22F834EF12ED80
:1009E0000A0AB4EE410AF1EE10FA0BD1190E80F8A2
:1009F0004C10B2F900109FED4A2A01EE101AB8EE21
:100A0000C11A0BE0B2F900109FED442A01EE101A52
:100A1000B8EEC11A81EE021AB2EE042A21EE021AD1
:100A2000024680ED101A90ED021ABCF9001020EE7B
:100A3000010A01EE101AB8EEC11A81EE000ABDEEED
:100A4000C00A10EE101AACF8001084463CF8441F9F
:100A500032F8603FC91A034623F8461F0021C3F845
:100A60005210B3F9001001EBE13484EAE13109B22C
:100A7000B1F5805F0CDDB3F800E04FF0FF351C8866
:100A800021B20129B8BFE50B818805FB01E119807E
:100A9000B3F90010034653F8485F2944196093EDF9
:100AA000000A33F8441CB8EEC00A13ED102A01EE18
:100AB000101AB8EE411A22EE011A9FED1A2A20EE02
:100AC000020A13ED0F2A21EE021A80EE010A03ED4D
:100AD000040A13F8471C00291CBF1968C0F88C10C1
:100AE000014611F86C5F2DB1BCF800501580002252
:100AF0001A600A70D0F834C0826BC36B056C446C0A
:100B0000816C41660466C56583654265C0F850C066
:100B1000C16C8166BDE8B040704700BF00401C4614
:100B2000E5FF9F3A0000B44310B50446B0F9200039
:100B300094ED020A94ED031AB4F93C1002EE100A87
:100B400094F8700003EE101AB8EEC22AB8EEC33A59
:100B500020EE022A20EE033A22EE010A84ED3A0A40
:100B600021EE031A84ED3B1AC8B1BDEEC00AB4F9F8
:100B70007C20012310EE100A012800EBE03181EA0D
:100B8000E03109B2B8BFC3139142C8BF02FB03F002
:100B900000B200EE100AB8EEC00A84ED3A0A04F181
:100BA000C80002F0DDFCB4F91400B4F918100123F8
:100BB00001EE101AB8EEC11A30EE010ABDEEC00AFD
:100BC00010EE101A2183B4F91810012901EBE1325B
:100BD00082EAE13212B2B8BFCB138242C8BF03FB34
:100BE00000F1218310BD000070B50446B0F93C004F
:100BF00004F1C805B4F9841001EE100A284600EE8D
:100C0000101AB8EEC11A84ED3B1AB8EEC00A84ED92
:100C10003A0A02F0A5FCB4F91800012301EE100A0B
:100C2000B4F98600B8EEC11A30EE010ABDEEC00A72
:100C300010EE101A2183B4F91810012901EBE132EA
:100C400082EAE13212B2B8BFCB138242C8BF03FBC3
:100C500000F12183B4F9460000EBE03181EAE03095
:100C600000B209281BDCD4F89000652800F10100CF
:100C7000C4F8900038BF70BD012084F86F0004F103
:100C8000A0000026C4F89060667002F0C1FC2846FF
:100C900002F0BEFCB4F84400A4F86000A66470BD85
:100CA000704700000000000072B600BFFEE70000C1
:100CB00044F60C00C5F60200016841F00201016033
:100CC00050F8081C8904FBD57047000000000000A4
:100CD00080B540F24C40C2F2004000F0E5F980BD22
:100CE00080B540F24C40C2F2004000F0DDF980BD1A
:100CF000F0B5D1F804C0D1F810E0BCF1000FD1F884
:100D000008C006D00C684EEA0C05254345F0804C1F
:100D100004E00D684CEA0E0444EA854C856ED0F878
:100D20008470D1E907466B438D6944EA0660D1F8C7
:100D300014E0CC68054307EB830045EA0E0647F84C
:100D400023C046EA04434360CB68002B08BFF0BDD4
:100D500046F23C2C083001320023C0F6000C00BFE4
:100D6000D71857F8017CC750CF6804331CF80770B8
:100D7000BB42F5D3F0BD000090F89830013B012B49
:100D80000BD80068836D0B420CD0836D0B408B42F7
:100D90000CD1C36D43F0020309E000F19C01012076
:100DA000022221E0C36D43F0010300E00323C36589
:100DB0008B0504D5D0F8E0301343C0F8E0304B0584
:100DC00004D5D0F8E4301A43C0F8E4204FF6FF729F
:100DD000436DC3F6CF720A401A4342658A0F4AF642
:100DE00014010020C4F200010B681A430A60704726
:100DF000B0B5044690F8980002281AD12068D0F8BF
:100E0000C03013F07C5F19D0D0F8C4309B021AD4E4
:100E1000D0F8C400C0F3044520462B46FFF768FF16
:100E200020680121A940C0F8D0100020C4F8941017
:100E3000B0BDD4F89C0040F0080008E0D4F89C0055
:100E400040F0200003E0D4F89C0040F40070C4F8A7
:100E50009C000120B0BD00007047000000000000B1
:100E600080B590F89820013A012A0AD80A68002A29
:100E7000CA680ED00B69072A43EA427E16D18B69F5
:100E800019E0D0F89C1041F00201C0F89C1001203C
:100E900080BD072A18D10A69D1F81CC012048B69D9
:100EA00042EA0C221A4342F0605217E0D1F808C01F
:100EB0004B6943EA8C73006F496800EBC10240F84C
:100EC00031E00020536080BD8B68D1F810C09B07D3
:100ED00043EAC2624B6942EA0C421A434968C06E57
:100EE00040F82120002080BD704700000000000075
:100EF000704700000000000070B590F89850022D77
:100F000026D1402929D10568D5F8A04014F4FE0F58
:100F100000F09B80D5F8A440640600F0A280D5F8CC
:100F2000A4C0D5F8A440E401CCF3052E0AD5D5F829
:100F3000A040B4F1FF3F05DC0EF10104D5F8A0504C
:100F400004EA154E00F1740600F14405F44633E05E
:100F5000D0F89C1041F0080187E0412922D10568B2
:100F6000D5F8B04014F4FE0F6FD0D5F8B440640645
:100F700077D0D5F8B4C0D5F8B440E401CCF3052E51
:100F80000AD5D5F8B040B4F1FF3F05DC0EF10104FD
:100F9000D5F8B05004EA154E00F1780600F14C0582
:100FA000F44609E0056D8D424FD900F17C0600F151
:100FB00054054FF0000C8E462D6836680EFB05F484
:100FC00056F8245015F08045556056F824E02EF070
:100FD000604508BFCEF38A45156056F8245005F0E9
:100FE0000055956006EB840556F8246006F000462F
:100FF0001661AE88D661EE8816F00F06D6606E6870
:1010000006F4801656616E6806F400169661EE7955
:1010100006F07F0616626E684FEAD67656620DD0ED
:1010200046F23C2E08350024C0F6000E2E5D1E55FB
:101030000134D6681EF80660B442F7D3402909D1BE
:101040000068C0F8A8C0002070BDD0F89C1041F026
:1010500020010AE041290CD10068C0F8B8C0002086
:1010600070BDD0F89C1041F48071C0F89C10012034
:1010700070BD1F2907D80068012202FA01F1C0F8EB
:101080009810002070BD006801F01F01012202FAD3
:1010900001F1C0F89C10002070BD000000000000AD
:1010A00070470000000000002DE9F04F89B00446B1
:1010B0004AF61000C4F2000001684AF61400C4F2B7
:1010C00000000268206802EA0108056DD0F854901B
:1010D000036D0293436D0193036D0493436D03937A
:1010E000036D0893436D0793036D0693436D05935A
:1010F000D0F854A0D0F850B05FEACA530ED51BF414
:1011000080710BD04FF4807101654AF61001002008
:10111000C4F2000108602046FFF7C2FF05EA090695
:101120004AF610095FEA4A50C4F200094FEA88778C
:1011300011D51BF480600ED02068D0F8DC10D0F8F8
:10114000E42011404FF4806202650020C9F80000DD
:10115000204600F00DFCDDE9011000EA010506F46F
:10116000704657B120680021016508F00300C9F8F6
:10117000000020463946FFF76FFEDDE9031000EA64
:10118000010705F00F0546B12068314606650020CD
:10119000C9F80000204600F0F3FB07F0F00645B167
:1011A0002068294605650020C9F80000204600F0A7
:1011B00067FB46B12068314606650020C9F800008B
:1011C000204600F09DFB5FEA0A500CD51BF400603E
:1011D00009D020684FF4006101650020C9F80000C3
:1011E000204600F0D1FB5FEA8A5011D51BF4007055
:1011F0000ED02068D0F8D810D0F8E02011404FF47D
:10120000007202650020C9F80000204600F0B4FB1F
:101210005FEA0A300CD51BF4002009D020684FF497
:10122000002101650020C9F80000204600F024FBE1
:101230005FEACA300CD51BF4803009D020684FF427
:10124000803101650020C9F80000204600F08CFBC9
:101250005FEA4A30DDE9051000EA01050CD51BF410
:10126000802009D020684FF4802101650020C9F852
:101270000000204600F074FB5FEA8A30DDE90710C9
:1012800000EA010005F060710FD51BF400320CD0AC
:1012900022684FF4003313650022C9F80020D4F807
:1012A0009C2042F08002C4F89C2000F0715539B1B6
:1012B000206801650020C9F800002046FFF718FEED
:1012C0004DB1206805650020C9F80000D4F89C00E5
:1012D0002843C4F89C002068A9F50161884208D021
:1012E000D4F89C0010B12046FFF7FEFD09B0BDE820
:1012F000F08F606881688907F2D0016A426A036AE8
:10130000476A114003EA070202F03005D0F8208056
:10131000D0F82490D0F820B0D0F824A0026A089227
:1013200011F00F01426A0792466A026A069203D0E0
:101330000162204600F008FB08EA09072DB1606849
:1013400029460562204600F007FB70060BEA0A06F4
:1013500007F4C0750ED5069810F040000AD06068FA
:101360004023C16BC26B090C02F03F0203622046AE
:1013700000F0EEFADDE9071000EA010706F4FC468A
:101380002DB1606829460562204600F0D9FA07F4BD
:10139000F02036B161680E62D4F89C103143C4F875
:1013A0009C1000289CD061680862D4F89C10084307
:1013B000C4F89C0094E700002DE9F04F85B00028A8
:1013C00040D04AF200080446C4F2000800684045D4
:1013D00002D108F58070606094F8980028B9002068
:1013E00084F89900204600F0CBF92068816921F04B
:1013F0001001816100F0A4FB054600BF20688169EF
:10140000090705D500F09CFB401B0B28F6D310E024
:10141000816941F00101816100F092FB054600BF46
:1014200020688169C90711D100F08AFB401B0B2895
:10143000F6D30120D4F89C100843C4F89C00032084
:1014400084F89800012005B0BDE8F08F816941F073
:1014500002018161217C826922F04002012918BFCA
:1014600040328261617C826922F48042012908BF96
:1014700002F580428261A17C826922F480520129B6
:1014800018BF02F580528261816921F44073D4E96A
:1014900002120B438361836923F0A4038361036910
:1014A00023F0100303619AB1012A0DD0022A09D05A
:1014B0008369032A43F080038361036943F01002C8
:1014C000026105D1202200E0042283691A4382616F
:1014D000D4E90572E369561E6FF0FF02256A02EB3C
:1014E0000323B1F5407F43EA4663A5F1010646EACE
:1014F000030640F20003CFF6FF7303EB074746EA0B
:101500000701C16110D1D4E90B65D4E90917013F86
:1015100002EB06226FF00F063A4306EB05173A433B
:1015200003EB01411143C160236E2BB1616ED0F812
:10153000C0201143C0F8C010E16DCDE90313D942BA
:1015400046F29811C0F6000109D0D0F8C820A36E69
:1015500022F0070251F823301A43C0F8C820D4F80B
:1015600040A0BAF1000F09D0D0F8BC20636C22F083
:10157000070251F823301A43C0F8BC20A76C57B1BA
:10158000D0F8BC20E36C22F0700251F8233042EA1C
:101590000312C0F8BC20D4F850C0BCF1000F0AD030
:1015A000D0F8BC20636D22F4E06251F8231042EAC7
:1015B0000121C0F8BC10404504D161688A6822F05E
:1015C00003028A600021C4F89410C4F89C10012121
:1015D00084F898104FF6FC72D0F88410D4F83C9040
:1015E00021EA0203656CD4E90D120292019543EAE7
:1015F0008103C0F88430D0F8843023F47F0343EAB9
:101600000243C0F884305318D0F888606FF38F0617
:1016100046EA8306C0F88860D0F8886003EB490387
:1016200026F4FE0646EA0946C0F88860D0F8A060B5
:101630006FF38F0646EA8306C0F8A060D0F8A0607A
:1016400005FB0A3326F4FE0646EA0A46C0F8A06007
:10165000D0F8B0606FF38F0646EA8306C0F8B0603A
:10166000D0F8B06026F4FE0646EA0746C0F8B0603F
:10167000E66CD0F8AC506FF38F0506FB07337E4362
:1016800045EA8305C0F8AC50D4F8548008FB0C350B
:10169000D0F8F0306FF38F0308FB0CFC43EA8503AE
:1016A000C0F8F030D0F8F0E0A36D2EF47C1242EADE
:1016B0000342C0F8F02005EB4302D0F8C0506FF3AE
:1016C0008F0545EA8202C0F8C020D0F8C020DDF8BE
:1016D0000CB022F47C1242EA0B42C0F8C020019AFE
:1016E000D0F8C05025F07C5502FB0AFE4AF20002F9
:1016F000C4F20002DDF810A002EB8101029A01F5AC
:10170000406145EA0A6501EB8207C0F8C05007EB6B
:10171000C902A56E02EB8E00626700EB86060BFB2A
:1017200005F2276706EB8C07C4E91E060AFB05F0E5
:1017300007EBC30303EB8202C4F884304DF2FC33A1
:10174000E16602EB8000C4F200039842C4F88070A6
:10175000C4F88820C4F8900001D920206AE68142AC
:1017600009D2002041F8040BD4F890209142F9D31B
:1017700005B0BDE8F08F002005B0BDE8F08F000097
:101780002DE9F041B6B0044602A8B8210025CDE904
:101790003455CDE932553195FEF77BFE4AF20041D2
:1017A0002068C4F20001884202D036B0BDE8F08162
:1017B0004FF4004002904FF002081020CDE90508D8
:1017C00005200395CDE90708C020CDF81080CDE9AC
:1017D00009054FF000501D9002A80B9500F028FB62
:1017E00008B1FFF761FA44F2E04040F20044C5F668
:1017F0000200C5F6020431AD0027C168092641F494
:101800008071C160C16801F4807101910199016822
:1018100041F0020101600068294600F002000190D9
:1018200001984FF48050CDE93108012033902046D3
:101830003497359600F0ACF84FF400502946CDE9C6
:10184000310820463596CDE9337700F0A1F8142011
:101850000521002200F088FA142000F075FA162005
:101860000521002200F080FA162000F06DFA36B053
:10187000BDE8F0810000000070470000000000009B
:10188000B0B592B0C9071BD04AF2004104460068C7
:10189000C4F20001884213D108AD28212846FEF782
:1018A000F8FD00200790CDE90500CDE90300CDE962
:1018B000010006AB402120462A46FFF71DFB08B178
:1018C00012B0B0BD0798CDF811000698CDF80D0004
:1018D000DDE908018DF8041040F24441C2F20041F4
:1018E0000B9A8DF80C200A9A8DF8052000220290A0
:1018F000086801A9002302F06FFB12B0B0BD000020
:10190000704700000000000090F8981001290CD1E9
:10191000022180F8981001688A6922F001028A6128
:101920000021C0F89C1008467047D0F89C1041F088
:101930000401C0F89C100120704700000000000066
:101940007047000000000000704700000000000029
:101950007047000000000000704700000000000019
:101960007047000000000000704700000000000009
:1019700070470000000000007047000000000000F9
:1019800070470000000000007047000000000000E9
:101990002DE9F04F82B042F200420A27C5F602025A
:1019A0000B68904208BF0927002B009700F0C38006
:1019B00000F1264240F2040A02F1FF72C5F6000A65
:1019C0004FEAB227009A082F4FF0000438BF3A467A
:1019D00000260127009209E00B68043633FA07F26B
:1019E00007F1010704F1020400F0A580A7F1010945
:1019F000012202FA09FB13EA0B08EDD0D1F804E04A
:101A00000EF00303A3F1010CBCF1010F12D8032265
:101A1000D0F808C0A240CD682CEA0202A5402A43B3
:101A20008260CEF30015426822EA0B0205FA09F53E
:101A30002A434260032B02D18A68012A0AD003227A
:101A4000D0F80CC002FA04F58A682CEA0505A24019
:101A50002A43C260022B12D16FF0030206F01C056C
:101A600002EA59020F23024403FA05FED2F820C00D
:101A70000B692CEA0E0CAB4043EA0C031362032300
:101A80000268A3404D689A4305F00303A34015F490
:101A9000403F42EA030202609ED044F2F44340F227
:101AA000084EC5F60203C5F6000E0F251A6842F06F
:101AB00002021A601A6802F00202019229F003027F
:101AC000019B06F00C0352F80EC09D402CEA050C59
:101AD000009D05FA03F343EA0C0342F80E304FF081
:101AE000B04EDEF800C04B684CEA0805DA0258BF79
:101AF0002CEA08059A02CEF80050DAF800C04CEA49
:101B0000080558BF2CEA08059A03CAF80050DAF80D
:101B100080C04CEA080558BF2CEA0805DB03CAF868
:101B20008050DAF87C2042EA080558BF22EA08050E
:101B3000CAF87C5050E702B0BDE8F08F000000000A
:101B400044F2AC60C2F20040006870470000000040
:101B500040F2080044F2AC61C2F20040C2F200411F
:101B600000780A6810440860704700000000000018
:101B700080B5032000F028F900F0A2FF44F21841DC
:101B800046F2E413C5F60201C0F600030A680968CC
:101B900001F00F01C2F30322595C9A5C01F01F01AE
:101BA00002F01F02D04040F20402C2F2004220FACA
:101BB00001F1116040F20001C2F2004108600F2003
:101BC00000F00AF800281CBF012080BD00F0A4F836
:101BD000002080BD00000000B0B58AB00F283DD8BD
:101BE0000446192000222146002500F0BDF81920E6
:101BF00000F0AAF840F20C00C2F20040046044F287
:101C0000F040C5F60200016841F001010160006882
:101C100001A900F001000290029802A800F0F4FE71
:101C200000F01EFF4DF683614000C4F21B3100221C
:101C3000A0FB010140F2EC40C2F200404FF0FF3344
:101C4000C4F20102026003EB9141C0E9011540F2C8
:101C5000E731C0E9031501F073FA10B101200AB0B1
:101C6000B0BD40F2EC40C2F2004001F09DFA0AB073
:101C7000B0BD00000000000010B54EF6A05E417837
:101C8000CEF2000E90F800C04EF8081CDEF80010EE
:101C900021F00101CEF8001041684EF8041C017BD0
:101CA000C37A827A447B1B0643EA0171837B41EA53
:101CB000C241C27B41EA8441447A41EA4341007A0D
:101CC00041EA024141EA042141EA400040EA0C00B5
:101CD000CEF8000010BD00004EF62450CEF20000F9
:101CE000BFF35F8F016821F480310160002101673B
:101CF00070470000000000004EF6245140F0010043
:101D0000CEF200010867086840F480300860BFF335
:101D10004F8FBFF36F8F704780B582B044F2F440AD
:101D20000022C5F60200016841F00201016000686E
:101D30000F2100F00200019001986FF0010000F007
:101D400013F802B080BD0000002848BF704700F0C3
:101D50001F01012202FA01F14EF200124009CEF2F7
:101D6000000242F82010704770B54EF60C5C4FF040
:101D7000FF36CEF2000C00F16045DCF80030C3F312
:101D8000022E8EF00703042B28BF0423BEF10304A8
:101D900006FA03F321EA030100F00F0338BF002421
:101DA000043BB0F1FF3F634406FA04F003F10C0377
:101DB00001FA04F1C8BF05F5644322EA00000843B4
:101DC0000001187070BD00004EF60C514FF6FF0375
:101DD000CEF200010A681A4060F30A2242F08060E5
:101DE00040F0FD7008607047B0B544F60C05C5F6CC
:101DF000020529684907296805D401F00701081A76
:101E000018BF0120B0BD21F0070108432860FFF78B
:101E100097FE044655F8080C800407D4FFF790FE9F
:101E2000001BB0F57A7FF5D90120B0BD0020B0BD10
:101E30002DE9F04381B00446C07844F22C490007F4
:101E4000C5F6020901D400252EE0606E4FEA30503D
:101E500003280DD80025DFE800F0020E1714D9F88A
:101E60000000002540F40030C9F8000055B913E027
:101E700001253DB910E004F10800022101F004FC45
:101E800005464DB1A84611E004F12800022101F0F9
:101E90008BFC0546002DF5D1D9F82400616E20F4A5
:101EA00040100843C9F824004FF000086078C007CC
:101EB00030D0A06D042807D8DFE800F00A131C0317
:101EC0000300FDB1A84625E00125002DFAD119E057
:101ED000D9F8000040F40030C9F80000002DF1D11D
:101EE00010E004F10800002101F0CEFB0546002DB2
:101EF000E8D107E004F12800002101F055FC054677
:101F0000002DDFD1D9F82400A16D20F0070008438F
:101F1000C9F824006078400734D5D4F8A4004FEA0B
:101F20007050052807D8DFE800F00A131C030303EC
:101F3000FDB1A84626E00125002DFAD119E0D9F817
:101F4000000040F40030C9F80000002DF1D110E08D
:101F500004F10800002101F097FB0546002DE8D1AF
:101F600007E004F12800002101F01EFC0546002DC9
:101F7000DFD1D9F82C00D4F8A41020F46000084375
:101F8000C9F82C006078000734D5D4F8A8004FEACF
:101F90003060052807D8DFE800F00A131C030303AC
:101FA000FDB1A84626E00125002DFAD119E0D9F8A7
:101FB000000040F40030C9F80000002DF1D110E01D
:101FC00004F10800002101F05FFB0546002DE8D177
:101FD00007E004F12800002101F0E6FB0546002D92
:101FE000DFD1D9F82C00D4F8A81020F0E060084325
:101FF000C9F82C00E078800728D5E06C4FEA301053
:10200000032806D8DFE800F002091202B5B1A8469D
:102010001CE00125002DFAD110E0D9F8000040F4B1
:102020000030C9F80000002DF1D107E004F10800EC
:10203000022101F029FB0546002DE8D1D9F8200046
:10204000E16C20F030000843C9F820006078C00639
:1020500032D5E06D4FEA3030042807D8DFE800F0D1
:102060000A131C030300FDB1A84625E00125002D3D
:10207000FAD119E0D9F8000040F40030C9F80000A6
:10208000002DF1D110E004F10800002101F0FCFA6C
:102090000546002DE8D107E004F12800002101F0F9
:1020A00083FB0546002DDFD1D9F82400E16D20F433
:1020B000E0400843C9F824006078800626D5206EE9
:1020C0004FEA3040052807D8DFE800F0030A100384
:1020D00003039DB1A84619E00125002DFAD10DE0BA
:1020E00004F10800012101F0CFFA04E004F1280016
:1020F000012101F059FB0546002DEBD1D9F8240050
:10210000216E20F4E0200843C9F8240060784006DE
:1021100028D5D4F8AC004FEA3070052807D8DFE89E
:1021200000F0030A100303039DB1A8461AE001253D
:10213000002DFAD10DE004F10800012101F0A4FA0C
:1021400004E004F12800012101F02EFB0546002DDA
:10215000EBD1D9F82C00D4F8AC1020F0E0400843C3
:10216000C9F82C006078000620D5E06ED8B1B0F137
:10217000005F12D0B0F1805F25D1D9F8000040F4A3
:102180000030C9F8000085B9D9F82400E16E20F0CC
:1021900040500843C9F8240008E004F10800012178
:1021A00001F072FA0546002DEED0A846E078C0078F
:1021B0002AD0A06C03280AD8DFE800F0020D16022E
:1021C000D5B1A84620E00125002DEED1DCE70125A0
:1021D000002DF6D110E0D9F8000040F40030C9F825
:1021E0000000002DEDD107E004F10800022101F00C
:1021F0004BFA0546002DE4D1D9F82000A16C20F05F
:1022000003000843C9F82000A078400642D5D9F859
:10221000D40340F48070C9F8D403FFF791FC06465C
:10222000D9F8D403C00505D4FFF78AFC801B6528C4
:10223000F6D303256DBBD9F84410D4F8B000414063
:1022400011F4407F11D0D9F84410D9F8442042F459
:102250008032C9F84420D9F8442021F4407122F496
:102260008032C9F84420C9F84410B0F5807F0FD1FE
:10227000FFF766FC064641F2893700BFD9F84400F3
:10228000800705D4FFF75CFC801BB842F6D303251A
:1022900085B1A8462078C00742D0A06F4FEAF00071
:1022A000052823D8DFE800F003262C0303037DB3C1
:1022B000A84635E04FF6CF73D4F8B00059F81C2C7F
:1022C000C0F2FF0300F4407122F47C5203EA1013C1
:1022D000B1F5407F08BF1A436FF31F3049F81C2C3B
:1022E000D9F844100843C9F84400D3E70125002D6C
:1022F000DED10DE004F10800012101F0C5F904E090
:1023000004F12800012101F04FFA0546002DCFD13C
:10231000D9F82800A16F20F038000843C9F8280038
:102320002078800724D5606F052807D8DFE800F003
:10233000030A100303039DB1A84619E00125002DEF
:10234000FAD10DE004F10800012101F09DF904E04B
:1023500004F12800012101F027FA0546002DEBD1F8
:10236000D9F82800616F20F007000843C9F8280059
:102370002078400726D5D4F89000052807D8DFE854
:1023800000F0030A100303039DB1A8461AE00125DB
:10239000002DFAD10DE004F10800012101F074F9DB
:1023A00004E004F12800012101F0FEF90546002DAA
:1023B000EBD1D9F82C00D4F8901020F00700084396
:1023C000C9F82C002078800628D5D4F88C004FEA74
:1023D0003070052807D8DFE800F0030A1003030374
:1023E0009DB1A8461AE00125002DFAD10DE004F1B7
:1023F0000800002101F048F904E004F1280002215E
:1024000001F0D2F90546002DEBD1D9F82800D4F817
:102410008C1020F0E0400843C9F8280020784006DE
:1024200028D5D4F898004FEAB020052807D8DFE86F
:1024300000F0030A100303039DB1A8461AE001252A
:10244000002DFAD10DE004F10800002101F01CF983
:1024500004E004F12800022101F0A6F90546002D50
:10246000EBD1D9F82C00D4F8981020F4E0500843B0
:10247000C9F82C002078000628D5D4F89C004FEA33
:102480007030052807D8DFE800F0030A10030303C3
:102490009DB1A8461AE00125002DFAD10DE004F106
:1024A0000800002101F0F0F804E004F12800022106
:1024B00001F07AF90546002DEBD1D9F82C00D4F8BB
:1024C0009C1020F460400843C9F82C0020780007D5
:1024D00016D5D4F88000B0F5805F08D104F128004B
:1024E000022101F061F9002818BF4FF00108D9F866
:1024F0002800D4F8801020F440500843C9F8280080
:102500002078C00616D5D4F89400B0F5807F08D1A5
:1025100004F12800022101F047F9002818BF4FF00C
:102520000108D9F82C00D4F8941020F44070084326
:10253000C9F82C00A078000722D5D4F8A000B0F587
:10254000003F1AD0B0F5803F11D0C8BB04F108009D
:10255000002101F099F805468DB9D9F82C00D4F87E
:10256000A01020F440300843C9F82C0008E004F122
:102570002800022101F018F90546002DEDD0A846EB
:10258000A078400729D5D4F88400B0F5401F21D0A9
:10259000B0F5001F18D0B0F5801F40F0BA80D9F810
:1025A000000040F40030C9F80000ADB9D9F82800A7
:1025B000D4F8841020F440100843C9F828000CE037
:1025C0000125002DDBD1C8E704F12800012101F02D
:1025D000EBF80546002DE9D0A846A078C00720D02A
:1025E000206DB0F5803F10D0B8B9D9F8000040F4A4
:1025F0000030C9F800009DB9D9F82000216D20F401
:1026000080300843C9F820000BE004F108000221E3
:1026100001F03AF805461DB9EEE70125002DEBD093
:10262000A846E078800608D504F12800022101F0D0
:10263000BBF8002818BF4FF00108D4E900108A0346
:1026400076D5E26F6FF0010303EB3223022B0AD33E
:102650004FEA32233BB1012B60D1D9F8003043F46B
:102660000033C9F80030002D5BD0CA0263D48A025F
:102670006BD44A0073D4CA0F40F08180090200F184
:102680008980C00707D004F10800002100F0FCFF9A
:10269000002818BF05462079800707D504F10800F7
:1026A000012100F0F1FF002818BF054620794007FE
:1026B00007D504F10800022100F0E6FF002818BF4A
:1026C00005462079000707D504F12800002101F014
:1026D0006BF8002818BF05462079C00607D504F11D
:1026E0002800012101F060F8002818BF0546207974
:1026F000800607D504F12800022101F055F80028D2
:1027000018BF0125002D18BF0125284601B0BDE8DE
:10271000F0830125002D7FF45FAF47E70125002DF1
:10272000A3D1D9F8283023F440731A43C9F82820DC
:102730004546CA029BD5D9F82420236F22F00042D7
:102740001A43C9F824208A0293D5D9F82420A36E0D
:1027500022F080721A43C9F824204A008BD559F818
:102760001C2C22F4004249F81C2CD4F8B42059F84F
:102770001C3C1A4349F81C2CCA0F3FF47FAFD9F810
:102780002020636D22F040521A43C9F8202009022C
:102790007FF577AFD9F82810D4F8882021F44001CC
:1027A0001143C9F82810C0077FF46DAF73E700002C
:1027B0002DE9F04381B0002800F0F48042F20008D7
:1027C0000446C5F200288946D8F8000000F00F0042
:1027D00088420ED2D8F8000020F00F0040EA09002D
:1027E000C8F80000D8F8000000F00F00484540F09D
:1027F000D980206844F218474107C5F602070AD578
:1028000021693A6802F07002914204D93A6822F0D4
:1028100070021143396001070AD561697A6802F0D4
:102820007002914204D97A6822F0700211437960F3
:10283000C1060AD5A1697A6802F4E062914204D91E
:102840007A6822F4E0621143796081060AD5E16971
:10285000BA6802F07002914204D9BA6822F070029C
:102860001143B96081070AD5E1683A6802F00F02A6
:10287000914204D93A6822F00F0211433960C0072F
:102880007ED1206881070AD5E1683A6802F00F021C
:10289000914204D23A6822F00F0211433960D8F80D
:1028A000001001F00F0149450DD9D8F8001021F0B2
:1028B0000F0141EA0901C8F80010D8F8001001F032
:1028C0000F0149456ED141070AD521693A6802F0E6
:1028D0007002914204D23A6822F0700211433960CA
:1028E00001070AD561697A6802F07002914204D248
:1028F0007A6822F0700211437960C1060AD5A16995
:102900007A6802F4E062914204D27A6822F4E062CA
:102910001143796080060AD5E069B96801F0700159
:10292000884204D2B96821F070010843B86000F011
:10293000C7F8396846F2E412C0F600023B68C1F3FA
:10294000032103F00F03515CD25C01F01F01C8406A
:1029500002F01F0140F2040220FA01F1C2F200422B
:10296000116040F2000140F20C02C2F20041C2F2DA
:10297000004208601068FFF72FF901B0BDE8F0834E
:10298000386820F47061D4E90102012841EA0201AB
:1029900039600BD003282BD002282ED157F8181CF1
:1029A000890307D4012001B0BDE8F08357F8181C53
:1029B000C905F7D557F8081C21F00701084347F867
:1029C000080CFFF7BDF8064641F2883557F8080CA9
:1029D000616800F03800B0EBC10F3FF452AFFFF771
:1029E000AFF8801BA842F1D9032001B0BDE8F08305
:1029F00057F8181C8901D5D5DCE757F8181C49078A
:102A0000D0D5D7E7000000003F22026044F2184210
:102A1000C5F6020252F8083C03F00703436013684E
:102A200003F470638360136803F00F03C3601368DB
:102A300003F070030361536803F07003436153684C
:102A400003F4E0638361926802F07002C26142F2B3
:102A50000000C5F20020006800F00F000860704719
:102A600080B500F02DF844F2184C46F2E411C5F69A
:102A7000020CC0F60001DCF80020DCF8003003F0A6
:102A80000F03C2F30322CB5C8A5C02F01F02D0402A
:102A900003F01F0240F2040320FA02F2C2F20043E4
:102AA0001A6040F20003C2F200431860DCF8040030
:102AB000C0F30220085C00F01F0022FA00F080BD85
:102AC00044F20041C5F602010869C0F3C2000328C0
:102AD0000FD002282AD070BB0868800649F2000097
:102AE000C0F2D03058BF70470968C1F3C101C84077
:102AF00070478A6A886AC0F3051CC86ABCF1000F77
:102B00004B6B1DD0C3F3CC0300F00100584302F01F
:102B10000302022A00EE100AB8EE400A12D0A2B94F
:102B20000868800614D49FED261A1EE047F6400080
:102B3000C0F27D10704740F60010C0F23D007047B3
:102B4000002070479FED1D1A0FE09FED1B1A0CE04F
:102B5000086849F20002C0F2D032C0F3C10022FA84
:102B600000F001EE100AB8EE411A086B9FED153A1D
:102B70006FF35F2002EE100A086BC0F34620B8EE38
:102B8000422A013000EE032A00EE10CAB7EE003AE6
:102B9000B8EE400A81EE000A32EE031A20EE010A76
:102BA00001EE100AB8EE411A80EE010ABCEEC00A2E
:102BB00010EE100A704700BF0024744A20BCBE4BC0
:102BC0000024744C000000392DE9F04381B0D8B1E5
:102BD0008046007844F20046C007C5F602064DD094
:102BE000306900F03801B06A102905D018290DD1DC
:102BF00000F00300022809D1306880033AD5D8F8E4
:102C00000400B8BB012728E0012787E2D8F8045068
:102C10002DB1B5F5A02F0AD0B5F5803F0BD03068A7
:102C200020F480303060306820F4802006E0306886
:102C300040F480203060306840F480303060FEF72F
:102C40007FFF002D054612D03068800312D4FEF7B6
:102C500077FF401B6428F7D903270020002800F0E5
:102C60005D820BE0FEF76CFF401B6428F4D83068EF
:102C70008003F7D40120002800F0508298F800006B
:102C800080075ED5306910F03801B06A19D0182974
:102C900008BF5FEA807014D0D8F80C003168C0B368
:102CA00021F0190108433060FEF74AFF054600BFD6
:102CB0003068400723D4FEF743FF401B0228F7D9B2
:102CC0001AE03068400704D5D8F80C00002800F05E
:102CD00039813068D8F80C1020F0190008433060B2
:102CE000FEF72EFF054600BF3068400707D4FEF709
:102CF00027FF401B0228F7D9032700241EE0706835
:102D0000D8F8101020F0FE40012440EA0160706005
:102D100014E021F001003060FEF712FF05464FF08D
:102D2000010900BF306810F0040089EA900405D062
:102D3000FEF706FF401B0228F4D90327002C00F001
:102D4000ED8198F80000C0064CD5306900F03801DC
:102D5000B06A082905D0182914D100F00300012811
:102D600010D13068C00503D5D8F81C00802834D1B4
:102D7000F068D8F8201020F07C50012440EA01606F
:102D8000F0602CE0D8F81C000028306810D040F02B
:102D900080003060FEF7D4FE054600BF3068C005F5
:102DA000E6D4FEF7CDFE401B0228F7D9032715E035
:102DB00020F080003060FEF7C3FE05464FF00109A9
:102DC000306810F4807089EA102408D0FEF7B8FE4D
:102DD000401B0228F4D9032701E001270024002C1E
:102DE00000F09C8198F80000000717D498F80000C4
:102DF000800629D498F8000040073BD4D8F8244036
:102E0000002C7DD0306900F0380018287AD1012CD0
:102E1000B16A306B40F0988001277FE1D8F8140048
:102E20000028706F3BD040F001007067FEF788FE0D
:102E3000054600BF706F8007D8D4FEF781FE401BA7
:102E40000228F7D9032769E1D8F81800002830686C
:102E500044D040F480503060FEF772FE054600BF5B
:102E600030688004C6D4FEF76BFE401B0228F7D9F9
:102E7000032753E1D6F8000440F48070C6F800043C
:102E8000FEF75EFE054600BFD6F80004C00516D466
:102E9000FEF756FE401B6428F6D903273EE120F0DA
:102EA00001007067FEF74CFE05460327706F800730
:102EB0009CD5FEF745FE401B0228F7D92EE1D8F835
:102EC00008501DB1052D78D0012D7AD0306F20F03B
:102ED00001003067306F20F0040075E020F480506E
:102EE0003060FEF72DFE0546032700BF30688004E2
:102EF0007FF580AFFEF724FE401B0228F6D90DE1D6
:102F000000270BE1306820F080703060FEF718FE7B
:102F1000022C05464FF003070AD100BF306880013C
:102F200070D5FEF70DFE401B0228F7D9F6E000BF72
:102F30003068800140F1C980FEF702FE401B022884
:102F4000F6D9EBE00127D8E601F00302D8F82830E3
:102F50009A4240F0BC80C1F30511D8F82C20914270
:102F600040F0B9800146D8F830206FF35F21013A74
:102F7000914240F0B280C0F34622D8F834100139B3
:102F80008A4240F0AC80C0F30642D8F838100139CC
:102F90008A4240F0A680C0F30660D8F83C100139A0
:102FA000884240F0A080706BD8F84810C0F3CC0085
:102FB000814240F09A800027B0E0306F40F004007A
:102FC0003067306F40F001003067FEF7B9FD002D2B
:102FD000054641F288344FF003070FD0306F800769
:102FE0003FF50CAFFEF7ACFD401BA042F6D995E0D3
:102FF000FEF7A6FD401BA04200F29080306F8007D4
:10300000F6D4FBE608F12807B06A40F2F3318843B2
:103010008ECF0843591E40EA02104FF47E426FF3F0
:103020005F21B06202EB47204FF4FE0280B2D8F875
:103030003C300844D8F8381002EB01414FF0FE4212
:1030400001F4FE0102EB0362084402F0FE41084471
:103050003063F06A4FF6F87120F00100F062706B97
:10306000D8F84820884340EAC2007063F06AD8F874
:10307000401020F00C000843F062F06AD8F84410C9
:1030800020F002000843F062F06A40F48030F06201
:10309000F06A40F40030F062F06A40F48020F062A0
:1030A000F06A40F00100F062306840F080703060FB
:1030B000FEF746FD044603273068800109D4FEF779
:1030C0003FFD001B0228F7D928E0002726E0012752
:1030D00024E0002722E0012720E001271EE001274D
:1030E0001CE001271AE0012718E0F06A20F0010037
:1030F000F062FEF725FD0546FEF722FDA842FBD053
:10310000706B4FF6F871D8F848208843002740EAE2
:10311000C2007063F06A40F00100F062F8B201B0E2
:10312000BDE8F083000000007047000000000000D0
:103130007047000000000000704700000000000021
:1031400060B310B5044690F83D0028B9002084F81B
:103150003C00204600F024F8022084F83D0020685E
:10316000211D00F0A9FC012084F8480084F83E00ED
:1031700084F83F0084F8400084F8410084F842005D
:1031800084F8430084F8440084F8450084F846003D
:1031900084F8470084F83D00002010BD01207047EE
:1031A000704700000000000090F83D10012922D176
:1031B000022180F83D1001684DF6FF70C4F2000056
:1031C0008142C86840F00100C86016DC40F2FF7020
:1031D000C4F20000814228DD40F60000C4F2000085
:1031E000814234D040F60040C4F2000081422ED02B
:1031F00041F6000027E0012070474FF6FF70C4F24F
:103200000000814217DD0020C4F2010081421ED07F
:1032100044F20000C4F20100814218D040F20040A4
:10322000C4F20100814212D01DE0B1F1804F0ED0F6
:1032300040F2004007E04EF20000C4F2000081427C
:1032400005D04EF20040C4F2000081420BD10722AB
:103250008868C0F2010202400020062A18BFB2F5B9
:10326000803F00D17047086840F0010008600020EE
:1032700070470000000000007047000000000000E0
:10328000F0B581B004460068C5680669B10716D577
:1032900015F0020113D06FF00201016101212177C5
:1032A0008069800703D02046FFF7E6FF05E020464F
:1032B00000F096F8204600F097F80020207770077D
:1032C00018D515F0040015D020686FF004010161D5
:1032D00002212177806910F4407F03D02046FFF758
:1032E000CBFF05E0204600F07BF8204600F07CF89C
:1032F00000202077300717D515F0080014D020687B
:103300006FF00801016104212177C069800703D0B3
:103310002046FFF7B1FF05E0204600F061F82046A7
:1033200000F062F800202077F00618D515F01000A4
:1033300015D020686FF01001016108212177C06964
:1033400010F4407F03D02046FFF796FF05E02046AB
:1033500000F046F8204600F047F800202077F007FC
:1033600018BF15F0010006D020686FF0010101615F
:10337000204600F03DF805F0800716F4025F18BF04
:10338000002F02D1F00509D410E020686FF402513B
:1033900001612046FFF7CCFEF00507D537B1206864
:1033A0006FF4807101612046FFF7BEFE700609D5FB
:1033B00015F0400006D020686FF040010161204602
:1033C00000F022F8B00609D515F0200006D02068DC
:1033D0006FF0200101612046FFF7AEFE01B0F0BDA5
:1033E000704700000000000070470000000000006F
:1033F00080B500210068C4F20101884218BF80BD79
:10340000FEF7A6FB80BD0000704700000000000032
:10341000FEE7000000000000B0B588B040F24C406C
:103420004AF20041C2F20040C4F20001002401252A
:1034300001600521C0E90244C0F80F400A2245613D
:10344000042381611D21C161C0E90825C0E90A5139
:10345000026340F2523141631021C0E90E110C2287
:103460000264C0E91132C0E91334C0E91534C0E97F
:103470001711C0E91943FDF79FFF08B1FDF714FCD0
:10348000CDE9064440F2012004904FF4027005900B
:1034900040F24C406946C2F20040CDE90044CDE91B
:1034A0000245FDF7DDFC08B1FDF7FEFB08B0B0BD3D
:1034B00080B543F6F90046F24C22C0F60000C0F693
:1034C0000002002100F0DCFD40F24841C2F2004160
:1034D000086000F0A5FB80BD82B044F2E040C5F674
:1034E0000200016841F080010160016801F0800183
:1034F00001910199016841F002010160006800F04A
:1035000002000090009802B0704700000000000028
:10351000FEE700000000000086B040F2444601AC27
:10352000C2F20046306800224FF0FF33214600F01F
:1035300097FC0028F6D101AD2FCD0095FDF720FABC
:10354000012000F015FCEDE7FDF73EF8012000F04A
:103550000FFCF9E700000000FEE70000000000009B
:1035600090ED080A90ED091A017830EE410A80EDDD
:10357000040A012923D0E1BBB8EE001AB0EE405A8C
:1035800090ED052A90ED024A30EE423A90ED066A3F
:10359000A2EE015A80ED050A20EE041A90ED014AD0
:1035A00080ED062AA4EE031A90ED034A35EE063AA2
:1035B000A4EE031A80ED071A90ED070A704790ED0C
:1035C000061A90ED013A90ED022A90ED054A22EE9E
:1035D000012A80ED050A30EE011A80ED061AA3EEED
:1035E000002A30EE443A90ED034AA4EE032A80ED1F
:1035F000072A90ED070A7047021D0170002182EC36
:10360000030AC0E90411C0E90611416A016270476A
:1036100000218161C0E90411704700000000000032
:10362000EFF30980BFF36F8F154B1A681EF0100F70
:1036300008BF20ED108A20E9F04F10602DE9090045
:103640004FF0500080F31188BFF34F8FBFF36F8F9F
:1036500001F0AAFC4FF0000080F31188BDE80900DA
:1036600019680868B0E8F04F1EF0100F08BFB0EC02
:10367000108A80F30988BFF36F8F704700BF00BFC7
:103680002C06002400000000F0B581B044F22C4765
:10369000C5F6020757F8042C02F00302032A02D1F0
:1036A000012001B0F0BD054657F82C0C0C4620F067
:1036B000806047F82C0CFEF743FA064657F82C0CAE
:1036C000000105D5FEF73CFA801B0228F6D964E01C
:1036D00057F8040CEE6895E80E0020F47C30012CBD
:1036E00040EA0130A2F101016FF35F214FF47E4205
:1036F00002EB432247F8040C92B24FF0FE4302EB78
:1037000001004FF4FE012A6901EB064101F4FE01BC
:1037100003EB0262084402F0FE410844F860386896
:10372000696920F0C00040EA010038603868A96982
:1037300020F0200040EA0100386038684FF6F87148
:1037400020F0100038603869EA6920EA01004FF47F
:10375000001140EAC2003861386808BF4FF4801198
:1037600040F01000002C386008BF4FF4002138688A
:103770000843386057F82C0C40F0806047F82C0C58
:10378000FEF7DEF9044600BF57F82C0C000107D401
:10379000FEF7D6F9001B0328F6D3032001B0F0BDD5
:1037A000002001B0F0BD0000F0B581B044F22C471C
:1037B000C5F6020757F8042C02F00302032A02D1CF
:1037C000012001B0F0BD054657F82C0C0C4620F046
:1037D000805047F82C0CFEF7B3F9064657F82C0C2E
:1037E000800005D5FEF7ACF9801B0228F6D964E00D
:1037F00057F8040CEE6895E80E0020F07C70012C60
:1038000040EA0150A2F101016FF35F214FF47E42C3
:1038100002EB432247F8040C92B24FF0FE4302EB56
:1038200001004FF4FE012A6901EB064101F4FE019B
:1038300003EB0262084402F0FE41084478613868F4
:10384000696920F4406040EA010038603868A9697D
:1038500020F4007040EA0100386038684FF6F871D3
:1038600020F480703860B869EA6920EA01004FF0FE
:10387000807140EAC200B861386808BF4FF40001A7
:1038800040F48070002C386008BF4FF48001386825
:103890000843386057F82C0C40F0805047F82C0C47
:1038A000FEF74EF9044600BF57F82C0C800007D4F1
:1038B000FEF746F9001B0328F6D3032001B0F0BD44
:1038C000002001B0F0BD000000000000000000007A
:1038D000074B19680868B0E8F04F80F30988BFF318
:1038E0006F8F4FF0000080F31188704700BF00BF5A
:1038F0002C06002400000000012000F039FAFBE74C
:1039000080B54EF21000CEF20000006802F074F9AB
:10391000012808BF80BD01F04BFC80BD0000000005
:10392000B0B59CB044F6180409A84C21C5F60204B1
:10393000FCF7AFFD02200025CDE90755CDE905557F
:10394000CDE90355CDE90155FEF74EFA0095206803
:1039500020F440402060206800F44040009000982F
:1039600020688004FCD5012009904FF480310A9131
:1039700002212C22CDE9152004201491CDE9170154
:103980000C20199009A80024CDE91211CDE91A44A0
:10399000FFF71AF908B172B6FEE73F200190032045
:1039A0004FF48061CDE90204082004904020CDE965
:1039B0000500CDE9071001A80321FEF7F9FE10B1BB
:1039C00072B600BFFEE71CB0B0BD000000000000F2
:1039D0004EF6885042F2000CCEF20000C5F2002CE8
:1039E000026842F470020260DCF8000000F00F0090
:1039F000062806D8DCF80000072262F30300CCF8A2
:103A0000000044F200404EF67F51C5F60200CEF6AB
:103A1000F621026842F0010202600022026103689E
:103A200019400160DCF80010090706D5DCF8001029
:103A3000072363F30301CCF8001040F200218261F8
:103A4000C261C0F20221026281620021C0F2FF1154
:103A5000C16240F28021C0F20111016342638163BF
:103A6000C26301644264016821F48021016002663E
:103A7000D0F8D410C90448BF7047D0F8D41043F22E
:103A8000D20241F48051C0F8D41044F20001C5F2D2
:103A900000210A60D0F8D41021F48051C0F8D4106D
:103AA000704700000000000080B540F2EC40C2F218
:103AB0000040FFF7E5FB80BD10B540F6FF32D0F8BF
:103AC00000E0C4F2000290420FDCB0F1804F1DD044
:103AD00040F20043C4F20003984217D040F60003BE
:103AE000C4F20003984211D015E040F60043C4F23E
:103AF000000398420AD040F20043C4F20103984206
:103B000004D00023C4F20103984204D12EF07002C5
:103B10004B6843EA020E4EF2FF3343F6FF7CC4F2D9
:103B20000003C4F2010C98420FDD604522DC4EF226
:103B30000043C4F20003984238D00023C4F20103CA
:103B4000984233D040F2004322E040F2FF73C4F2C7
:103B50000003984221DD40F60003C4F200039842BE
:103B600024D040F60043C4F2000398421ED04EF227
:103B7000000317E044F20003C4F20103984215D099
:103B800044F60003C4F2010398420FD044F200430C
:103B9000C4F20103984209D00DE0B0F1804F05D086
:103BA00040F20043C4F20003984204D12EF4407264
:103BB000CB6843EA020E4B6960450A688C68C462B0
:103BC00082620EDD44F20002C4F20102904213D080
:103BD00044F60002C4F2010290420DD044F20042C9
:103BE00006E00022C4F20102904205D040F20042F9
:103BF000C4F20102904201D109690163016841F0F8
:103C000004010160012141612EF08001194301602E
:103C100010BD000000000000FEE7000000000000F2
:103C200080B508201421002200F06EF940F24441D2
:103C300046F2F412C2F20041C0F60002086043F2FC
:103C40001950C0F60000002100F01AFA43F2495062
:103C500046F21822C0F60000C0F60002002100F073
:103C60000FFA80BD0000000010B540F24C44C2F2D3
:103C700000442046FDF748FE012100222046FDF7C2
:103C80007BF810BD0000000084B04EF614540025EF
:103C90000395CEF20004CDE901550095FEF71CF81E
:103CA0000120ADF8000048F21F70ADF8080068462A
:103CB0000195CDF80A50ADF80E50FDF7DDFF042058
:103CC000FEF71AF82068800311D4BFF34F8FBFF3BB
:103CD0006F8FC4F83C52BFF34F8FBFF36F8F2068D4
:103CE00040F400302060BFF34F8FBFF36F8F206828
:103CF000C00327D400202067BFF34F8FE06E43F648
:103D0000E07CC0F3C902C0F34E3102F1010E93070B
:103D10000CEA41151A46704642EA0506013802F1DE
:103D20004042C4F84C62F7D10029A1F10101EFD162
:103D3000BFF34F8F206840F480302060BFF34F8F77
:103D4000BFF36F8FFDF714FFFCF7C6FCFFF7E8FD2C
:103D5000FFF7C2FBFFF760FB00F02AF8FFF7A8FBB4
:103D6000FFF782FF00F04CF8FEE7000000000000C3
:103D700010B5EFF3058111B16FF0050010BD0446D9
:103D800001F03AFF012805D16CB1204600F0ECFFAC
:103D9000002010BDEFF310800028EDD1EFF311806B
:103DA0000028E9D1F0E7002010BD0000000000006D
:103DB00080B5EFF3058010B16FF0050080BD01F014
:103DC0001BFF012810D101F017FF01284FF0FF3031
:103DD00009D140F24041C2F200410A68002A02BF04
:103DE00001200860002080BDEFF310800028E3D19F
:103DF000EFF311800028DFD1E5E7000000000000AC
:103E000010B5EFF3058010B16FF0050010BD01F0A3
:103E1000F3FE012818D101F0EFFE01284FF0FF3426
:103E200010D140F24040C2F200400168012909D19E
:103E30004EF61F510024CEF200010C7002210160E9
:103E400001F052F8204610BDEFF310800028DBD1BE
:103E5000EFF311800028D7D1DDE70000000000005B
:103E600070B582B0EFF305821D460C4606463AB1A6
:103E70006FF00300002E18BF002C1AD102B070BDE5
:103E800001F0BAFE01282FD16FF00300002E18BFF9
:103E9000002CF3D0304621462A4601F01DFC0128B3
:103EA0001FD06FF00100002D08BF6FF0020002B0BC
:103EB00070BD002DE2D10020019001AA30462146BC
:103EC00001F0DEFC012818D1019850B14EF60450E3
:103ED0004FF08051CEF200000160BFF34F8FBFF36F
:103EE0006F8F002002B070BDEFF310800028BFD1AB
:103EF000EFF311800028BBD1C6E76FF0020002B0DB
:103F000070BD000000000000F0B581B0EFF3058344
:103F100014460D4606460BB1002004E001F06CFE8D
:103F200001281DD10120002D4FF0000743D0002EA5
:103F300018BF00283FD0E4B1A2682AB3E068502837
:103F400021D32069F8B105FB06F0616981424FF089
:103F500000004FF0000128BF01201BD2A2B119E0E0
:103F6000EFF310800028D7D1EFF311800028D3D1D0
:103F7000D8E70121002078B9C1B100223046294696
:103F800001F02EF910E01AB9E06808B92069E0B133
:103F9000002000210028EFD0A368002022690090B3
:103FA0003046294601F074F9074600E00027002C4E
:103FB00018BF002F02D1384601B0F0BD216800299A
:103FC000F9D0384600F07CFEF5E76069B0FA80F081
:103FD0004109CFE700000000F0B581B0EFF30582A2
:103FE0001E460C46054602B36FF00307002D18BFAE
:103FF000002C41D0002E3FD1002000906A460023C3
:104000002846214601F0B8FA012831D1009890B332
:104010004EF604504FF08051CEF2000000270160B0
:10402000BFF34F8FBFF36F8F26E001F0E5FD01284E
:1040300015D16FF00307002D18BF002C1CD00023F2
:10404000284621463246002701F08AF9012813D07C
:104050006FF00107002E08BF6FF002070CE0EFF3CE
:1040600010800028C0D1EFF311800028BCD1E0E718
:104070006FF0020700E00027384601B0F0BD0000F5
:1040800070B584B000230393EFF30586002E164627
:104090000C4605460DD101F0AFFD012801D10123E9
:1040A00007E0EFF3108018B9EFF311800028F6D085
:1040B0000023002D18BF002B02D1039804B070BD5F
:1040C000D6B3B069002808BF1820382831D8317914
:1040D000C9072ED1D6F814E0D6F808C04FEA9E02E0
:1040E000BEF1000F08BF8022BCF1000F31680BD079
:1040F000F3685C2B05D33369002B18BFBEF1000FAA
:1041000033D1BCF1000F01D1F36843B300234FF06A
:10411000000CCBB9BCF1000FCFD092B2009003A835
:1041200001902846234601F07FFC0128C5D00020DD
:1041300013E0002004B070BD4FF0010C00211820E6
:1041400080220023002BE5D0B36836690293CDE9C5
:1041500000062846234601F0CFFC0390ADE7336903
:10416000B3FA83F34FEA531CEBE74FF0000C012343
:10417000002BE9D1CEE70000F0B581B044F67462BF
:1041800040F22C66C2F20042C2F2004604460D46DE
:1041900017683268101D00F027FC601C18D1BDB1F3
:1041A00044F64C60C2F200404168326891608A680F
:1041B0003368DA6032688B6804325A6032680432DD
:1041C0008A603168486101680131016001B0F0BD69
:1041D0003068E41944600AD340F23C60C2F2004007
:1041E00000683168043100F04FFC01B0F0BD40F2CE
:1041F0003460C2F2004000683168043100F044FCD1
:1042000044F6D850C2F2004001688C4238BF0460C6
:1042100001B0F0BD000000002DE9F047044600F0B9
:104220005FFC44F2B06040F22C67C2F20040C2F280
:10423000004744F6406A40F244660168C2F2004A10
:10424000013101603968C2F2004651B1DAF800006C
:1042500000283ED13868E16AC06A884298BF3C6055
:1042600037E03C600068012833D10025701900F068
:10427000FBFB1435B5F58C6FF8D144F6A458C2F2A7
:104280000048404600F0F0FB44F6B859C2F200493D
:10429000484600F0E9FB44F6EC50C2F2004000F062
:1042A000E3FB44F66060C2F2004000F0DDFB44F640
:1042B0004C60C2F2004000F0D7FB40F23460C2F222
:1042C0000040C0F8008040F23C60C2F20040C0F8FC
:1042D000009044F2BC60251DC2F20040016801312B
:1042E0000160616444F2C061C2F20041E06A0A68A0
:1042F000904288BF086000EB800006EB800161619E
:104300004A68A2609368E360936895605D6056F8C0
:104310002010013146F8201000F00AFCDAF8000005
:1043200088B13868E16AC06A884228BFBDE8F08772
:104330004EF604504FF08051CEF200000160BFF302
:104340004F8FBFF36F8FBDE8F087000000000000C3
:1043500070B582B000F0C4FB44F67866C2F2004645
:10436000306850BB44F67C54C2F20044204600F052
:104370007BFB44F69055C2F20045284600F074FBE2
:1043800040F2306040F23852C2F2004040F2D8535E
:10439000C2F20042C2F20043046040F24060C2F246
:1043A0000040102105600A200025009500F070FFF4
:1043B000306010B103A100F083FC00F0B9FB02B043
:1043C00070BD00BF546D725100000000000000007D
:1043D00044F2B46540F2446A4EF6045844F660670D
:1043E00044F2B066C2F20045C2F2004ACEF20008C2
:1043F0004FF08059C2F20047C2F2004603E000BF0E
:10440000204600F0ADFB2868C8B100F069FBF868F1
:10441000C468201D00F0E8FA306801383060286870
:104420000138286000F084FB94F859000228EAD093
:104430000128E5D070B9206B00F092FBE0E7DAF8D4
:1044400000000228DFD3C8F80090BFF34F8FBFF3FE
:104450006F8FD8E74FF0500080F31188BFF36F8F54
:10446000BFF34F8FFEE7000008480068006880F344
:1044700008884FF0000080F3148862B661B6BFF37D
:104480004F8FBFF36F8F00DF00BF000008ED00E02B
:104490002DE9F04381B040F230680546C2F2004891
:1044A0000E46D8F80020D268D46804F104094846C2
:1044B00000F09AFA94F8280041070CD400F0FE00AE
:1044C00084F828001FE000BF711B814213D3216ACA
:1044D000204688473D46A069246147196760B74276
:1044E000F2D9B54201D9AF42F1D2D8F8000049461D
:1044F00000F0CAFA07E040F240604946C2F20040CC
:10450000006800F0C1FA216A2046884701B0BDE882
:10451000F08300000000000081B00020009040F215
:104520001000C2F2004000684FF0500181F3118882
:10453000BFF36F8FBFF34F8F013001D0FEE700BF95
:1045400000980028FCD001B0704700000000000077
:1045500084B040F2306440F2286940F2406A44F688
:10456000786BC2F20044C2F20049C2F2004AC2F2C1
:10457000004BE8462068076817B1C068066800E08D
:10458000002600F009FD01F04BFBD9F800100546AC
:10459000884209D22068016891B1C0684FF0FF31AC
:1045A0000068FFF775FFF5E7C9F8005097B1AE4214
:1045B00010D801F0E5FC30462946FFF769FF2DE0F1
:1045C000DAF800102160CAF80000C9F8005001F0C4
:1045D000D7FC23E00FB1002205E0DAF80000006804
:1045E000B0FA80F04209DBF80000711B00F098FB84
:1045F00001F0C6FC90B94EF604504FF08051CEF257
:1046000000000160BFF34F8FBFF36F8F06E000F033
:10461000FE0085F82800296A28468847DBF8000054
:104620000022414601F058F80028A3D00098B0F1CC
:10463000FF3F03DCDDE90120039990470098002843
:10464000ECD4029D686910B1281D00F0CDF901F08D
:10465000E7FAD9F80010064688420ED220680168B1
:1046600031B1C0684FF0FF310068FFF711FFF5E787
:10467000DAF800102160CAF800000098C9F800605C
:1046800001380828CAD8DFE800F005051A216205BC
:10469000051A210095F82800019AA9692F4640F0D3
:1046A000010385F828308B1847F8043FB3422D6189
:1046B00021D9964201D2934226D2206820E095F873
:1046C000280000F0FE0085F82800A7E795F82800EC
:1046D00040F001010198002885F82810A86150D009
:1046E00030442946B0422D6141F8040F37D9206883
:1046F00000F0CAF992E7B21A8A4205D2DAF800004D
:10470000394600F0C1F989E742077FF580AF01988B
:10471000D946C346D046084407E000BF301A884255
:1047200022D3296A284688475046A9692D6101EBA2
:10473000000AC5F804A0B245F0D9864201D28245EC
:10474000EFD22068394600F09FF9C24612E095F892
:1047500028008107B5D4284600F002FA5EE7DAF8AF
:10476000000000F091F959E7D8F800003946C24638
:1047700000F08AF9D846CB4640F22869C2F20049D7
:1047800049E74FF0500080F31188BFF36F8FBFF3FC
:104790004F8F00BFFEE70000F0B581B0044600F087
:1047A0009FF994F94560012E10DB04F1240503E024
:1047B00070B2013E012809DD286838B1284601F0B1
:1047C00067FB0028F4D000F033FBF1E7FF2684F804
:1047D000456000F0ADF900F083F994F94470012FC1
:1047E00010DB04F1100503E078B2013F012809DD78
:1047F000286838B1284601F04BFB0028F4D000F0BF
:1048000017FBF1E784F8446000F092F901B0F0BDC5
:1048100070B5044600F0C0FB40F2386144F6CC5E4F
:10482000C2F20041C2F2004E086858BB40F6A42014
:10483000C2F20040C21D10F0070322F00702A0EBF5
:10484000020618BF10464FF47052002B18BF06F531
:10485000705244F6446300260244C2F20043083A10
:1048600022F007020A6018605E60C2E90066121A50
:1048700042600B68036044F6D450CEF80020C2F2C8
:104880000040026004F10803092B05D314F007006F
:1048900003D0093883421CD90023012B4FF00004B8
:1048A0007ADBDEF80000834276D844F64462C2F236
:1048B000004215686C689C4214D2286870B100BF31
:1048C00044682A4605469C420CD228680028F7D145
:1048D00008E004F1100020F00703DEE744F644622C
:1048E000C2F200420868854213D0E01AD2F800C034
:1048F00011282C68146032D3EC1862070BD04FF0EB
:10490000500080F31188BFF36F8FBFF34F8F00BF4C
:10491000FEE7002440E060606B6044F64463C2F24E
:10492000004300BF1A461B68A342FBD35068161809
:10493000A64203D164682044144650606668A019FA
:10494000984201D0184606E00868834203D0D3E9B4
:10495000000131446160A242206018BF146044F637
:10496000D4506968C2F20040DEF80020511ACEF837
:10497000001002680CF10804914238BF0160002168
:10498000296044F6E0516868C2F2004140F00040FE
:10499000686008680130086001F0F2FA600708D02A
:1049A0004FF0500080F31188BFF36F8FBFF34F8F2C
:1049B000FEE7204670BD000044F2195321F00101CA
:1049C000C0F6000340F80C3C4FF0807340F8202CF8
:1049D00040E902136FF0020140F8241CA0F14401E9
:1049E0000846704700000000D0E9013201699A6072
:1049F000D0F808C04A6882424FF00002CCF8043078
:104A000008BFC1F804C0026108680138086008687E
:104A1000704700000000000044F2B060C2F20040A5
:104A2000006870470000000044F6C403C2F200436F
:104A3000036044F2C460C2F200400860802010604D
:104A4000704700000000000044F62053C2F200430B
:104A5000036044F62010C2F2004008604FF48070FA
:104A6000106070470000000002464FF0FF3142F82E
:104A7000081F00214260C0E9032201607047000066
:104A8000002101617047000080B5D1F800C01CF121
:104A9000010207D000F108039E465B681A68624570
:104AA000FAD901E0D0F810E0DEF804204A60CEF830
:104AB00004109160C1F808E00861016801310160EB
:104AC00080BD000000000000DFF80C00016841F428
:104AD000700101607047000088ED00E000000000F8
:104AE0004FF0500080F31188BFF36F8FBFF34F8FEB
:104AF00040F21000C2F200400168002901F10101FA
:104B0000016000D070474EF60450CEF200000068FD
:104B1000000608BF70474FF0500080F31188BFF3C4
:104B20006F8FBFF34F8F00BFFEE700000000000053
:104B300040F21000C2F20040016839B10139016051
:104B400018BF7047002080F3118870474FF0500065
:104B500080F31188BFF36F8FBFF34F8FFEE7000024
:104B6000B0B5002808BFB0BD044650F8040C0028BA
:104B700009D44FF0500080F31188BFF36F8FBFF35B
:104B80004F8F00BFFEE7A4F10805296849B14FF037
:104B9000500080F31188BFF36F8FBFF34F8F00BFBA
:104BA000FEE720F0004044F8040C00F0F5F944F66C
:104BB000CC5054F8041CC2F2004002681144016059
:104BC00044F64461C2F2004108460968A942FBD399
:104BD00042688318AB4204D154F8043C05461A4499
:104BE00042606B68EA188A4201D00A460AE040F245
:104BF0003862C2F200421268914203D0D1E900212A
:104C000019446960A8422A6018BF056044F6E45060
:104C1000C2F2004001680131016001F0B1F9B0BD9C
:104C20004EF210000021CEF2000044F6D352C1F241
:104C300062020160816040F20001C2F20041096835
:104C4000A1FB02124FF0FF3101EB921141600721ED
:104C50000160704700000000EFF30580102814D3B6
:104C60004EF2F03144F2A462CEF20001C2F20042F0
:104C7000405C1178884208D24FF0500080F31188D0
:104C8000BFF36F8FBFF34F8FFEE74EF60C5044F229
:104C9000A861CEF20000C2F200410068096800F489
:104CA000E060884298BF70474FF0500080F3118851
:104CB000BFF36F8FBFF34F8FFEE7000000000000CF
:104CC000B0B5D0B14FF0000C09B344F6006E00222D
:104CD000C2F2004E002302E00832402A1AD00EEB46
:104CE00002046568854214D0002BF5D15EF80230CD
:104CF000002B18BF64462346EEE74FF0500080F3C8
:104D00001188BFF36F8FBFF34F8F00BFFEE7002303
:104D100000E02346002B18BFC3E90010B0BD00001F
:104D200070B515460E460446FFF7DAFE94F84400C7
:104D3000FF2802D1002084F8440094F84500FF28A1
:104D400002D1002084F84500FFF7F2FEA06B28B9DD
:104D500004F1240031462A4600F08EF82046FFF781
:104D60001BFD70BD0000000070B5002843D0044654
:104D700044F2B860C2F20040016841B14FF0500007
:104D800080F31188BFF36F8FBFF34F8FFEE7016889
:104D900040F22C650131016044F67460C2F20045B6
:104DA000C2F20040066828680430FFF71DFE28683C
:104DB000A419446009D340F23C60C2F2004000688C
:104DC00029680431FFF760FE10E040F23460C2F25F
:104DD0000040006829680431FFF756FE44F6D850B9
:104DE000C2F2004001688C4238BF046001F0C8F88C
:104DF000002818BF70BD4EF604504FF08051CEF21F
:104E000000000160BFF34F8FBFF36F8F70BD0000D4
:104E100044F6DC51C2F200410968016044F6746155
:104E2000C2F20041096841607047000000000000C4
:104E300044F680600121C2F200400160704700002A
:104E400010B568B10C4640F22C61C2F2004109680D
:104E50001831FFF719FE01212046FFF78DF910BD2B
:104E60004FF0500080F31188BFF36F8FBFF34F8F67
:104E7000FEE700000000000010B550B340F22C6CBB
:104E8000D0F804E0C2F2004C002ADCF80030C3F88D
:104E90001CE0DEF80830DCF800402362DCF800306B
:104EA000DEF8084003F118036360DCF8003003F11A
:104EB0001803CEF80830DCF800309862036818BF99
:104EC0004FF0FF310133036008461146FFF754F9F4
:104ED00010BD4FF0500080F31188BFF36F8FBFF308
:104EE0004F8F00BFFEE7000010B586B005A804A9EB
:104EF00003AA0024CDE90444FFF796FDDDE9032071
:104F000005990023CDE9010144F2D13020A1C0F67A
:104F10000000009400F0F0FD44F6D051C2F20041D0
:104F2000086010B101F0F0F80446601C25D0012C97
:104F30001CD14FF0500080F31188BFF36F8FBFF387
:104F40004F8F44F6D850C2F200404FF0FF3101605D
:104F500044F64060C2F200400121016044F67460F2
:104F6000C2F200400021016000F072F846F2AC206D
:104F7000C0F60000006806B010BD4FF0500080F38E
:104F80001188BFF36F8FBFF34F8F00BFFEE700BFE5
:104F900049444C450000000044F2B860C2F20040B1
:104FA000016801310160704780B544F2B860C2F217
:104FB0000040006830B144F680600121C2F2004038
:104FC000016080BD44F6806044F2C06CC2F20040D3
:104FD000C2F2004C002140F244620160C2F2004281
:104FE000DCF8001001EB810352F8230050B902EB0A
:104FF0008300A0F1140300BFE9B153F8140901398B
:105000000028F9D001EB810002EB800E724652F8C5
:10501000040F131D40681060984202D1DEF80C00A6
:105020001060106840F22C62C2F20042C06810604A
:10503000CCF8001080BD4FF0500080F31188BFF312
:105040006F8FBFF34F8F00BFFEE70000000000002E
:10505000B0B584B04EF200404CF27021CEF20000A8
:10506000C4F20F114B1CD0F800299A4209D14FF01D
:10507000500080F31188BFF36F8FBFF34F8F00BFD5
:10508000FEE7D0F800298A4209D14FF0500080F3A2
:105090001188BFF36F8FBFF34F8F00BFFEE7002172
:1050A0000191017844F2A4628DF80B10FF21017088
:1050B000C2F2004201788DF803109DF8031011F040
:1050C0005001117060D09DF8031001F0500150297B
:1050D00063D19DF90310B1F1FF3F0BDC0199013160
:1050E00001919DF8031049008DF803109DF90310FC
:1050F0000029F3D40199002408294FF0000106D0BB
:1051000001994FF4E062A2EB012101F4E06144F265
:10511000A862C2F2004211609DF80B100170D0F835
:10512000201941F47F01C0F82019D0F8201941F06E
:105130007F41C0F82019FFF773FD40F21005C2F25D
:1051400000452C60FFF7C0FC4EF63470CEF2000034
:10515000016841F040410160FFF786F9FFF724FF45
:10516000039428684FF0500181F31188BFF36F8FCB
:10517000BFF34F8F013001D0FEE700BF0398002836
:10518000FCD0002004B0B0BD4FF0500080F3118877
:10519000BFF36F8FBFF34F8FFEE74FF0500080F3E8
:1051A0001188BFF36F8FBFF34F8F00BFFEE7000082
:1051B00080B54FF0500080F31188BFF36F8FBFF3BD
:1051C0004F8F00F035FD30B14EF604504FF0805156
:1051D000CEF200000160002080F3118880BD000045
:1051E0002DE9F04138B30746A0FB01040E4614BB7D
:1051F00006FB07F010F1510F1DD850309046FFF715
:1052000007FB054600284FF0000008BFBDE8F0810D
:1052100085F846002846002E18BF5030EF632860FE
:105220002E6494B14FF0500080F31188BFF36F8F5C
:10523000BFF34F8FFEE74FF0500080F31188BFF3AC
:105240006F8FBFF34F8F00BFFEE7FFF749FCD5E933
:105250000F012A68002701FB0023013800FB012011
:10526000AF636A60C5E90230FF2085F8440085F825
:10527000450005F11000FFF7F7FB05F12400FFF7EB
:10528000F3FBFFF755FC284685F84C80BDE8F0811C
:1052900070B582B07BB120B11C4601B90AB9A1B189
:1052A0009AB94FF0500080F31188BFF36F8FBFF3AE
:1052B0004F8F00BFFEE74FF0500080F31188BFF31F
:1052C0006F8FBFF34F8F00BFFEE750230193019B09
:1052D000502B07D1019B4FF0010384F8463051B1A8
:1052E000226009E04FF0500080F31188BFF36F8F08
:1052F000BFF34F8FFEE72460A0FB0123E06321642E
:105300004BB14FF0500080F31188BFF36F8FBFF3A4
:105310004F8F00BFFEE7069EFFF7E2FBD4E90F01C7
:105320002268002501FB0023013800FB0120A56352
:105330006260C4E90230FF2084F8440084F845002C
:1053400004F11000FFF790FB04F12400FFF78CFB41
:10535000FFF7EEFB84F84C60204602B070BD000001
:105360002DE9F04F83B00292B8B104461D460E46B7
:10537000E9B1022D03D1E06B012840F0A68000F0D6
:105380003BFC00BB0298F0B14FF0500080F3118855
:10539000BFF36F8FBFF34F8FFEE74FF0500080F3E6
:1053A0001188BFF36F8FBFF34F8F00BFFEE7206CF4
:1053B0000028DED04FF0500080F31188BFF36F8FCC
:1053C000BFF34F8FFEE7FFF78BFB022DA06B5ED084
:1053D000E16B88425BD304F1100801206F460DF1A8
:1053E000080900BF0299002900F08280C00702D09E
:1053F0003846FFF70DFDFFF79BFBFFF7CDFDFFF7ED
:105400006FFB94F84400FF2802D1002084F8440088
:1054100094F84500FF2802D1002084F84500FFF7EA
:1054200087FB3846494600F0B3FA002863D1FFF7FE
:1054300057FBD4F838A0D4F83CB0FFF779FBDA4535
:1054400016D102994046FFF7FBFC2046FFF7A4F96E
:1054500000F096FD88B94EF604504FF08051CEF220
:1054600000000160BFF34F8FBFF36F8F05E000BFF7
:105470002046FFF791F900F083FDFFF731FB022D85
:10548000A06B04D0E16B88424FF00000AAD2A76B5A
:10549000226C22B3C5B3E0683146FAF78BFFE168AE
:1054A000206C2268091A9142E16003D24042A1684F
:1054B0000844E060A81E3946B0FA80F0002F18BFFB
:1054C0000121400908403F1A2BE04FF0500080F3C3
:1054D0001188BFF36F8FBFF34F8F00BFFEE72068C7
:1054E0000025F8B9A06800F07FFCA560054619E02A
:1054F000FFF71EFB04E02046FFF74EF900F040FDE9
:10550000002003B0BDE8F08F60683146FAF752FF23
:10551000216CD4E9010208446060904201D3206804
:1055200060600025781CA06354F8240F78B12046F1
:1055300000F0AEFCB8B14EF604504FF08051CEF200
:1055400000000160BFF34F8FBFF36F8F0BE055B1C9
:105550004EF604504FF08051CEF200000160BFF3D0
:105560004F8FBFF36F8FFFF7E3FA012003B0BDE861
:10557000F08F0000000000002DE9F04F81B0E8B18D
:1055800004461E4615460F4609B3022E02D1E06BB3
:1055900001284ED1FFF760FBEFF311884FF0500068
:1055A00080F31188BFF36F8FBFF34F8F022EA06B74
:1055B00019D0E16B884216D3002088E04FF05000EC
:1055C00080F31188BFF36F8FBFF34F8FFEE7206C1E
:1055D0000028DAD04FF0500080F31188BFF36F8FAE
:1055E000BFF34F8FFEE794F945A0A06BD4F838B015
:1055F0005FFA8AF9226C32B36EB3E0683946FAF783
:10560000D9FEE168206C2268091A9142E16003D258
:105610004042A1680844E060B01E5946B0FA80F0EC
:10562000BBF1000F18BF012140090840ABEB000B94
:105630001EE04FF0500080F31188BFF36F8FBFF36F
:105640004F8F00BFFEE7206890B9A06800F0CCFB48
:105650000020A0600CE060683946FAF7ABFE216CD0
:10566000D4E9010208446060904201D32068606080
:10567000B9F1FF0F0BF10100A06310D0FFF7CCF9D7
:1056800050451BD9B9F17F0F1AD14FF0500080F36C
:105690001188BFF36F8FBFF34F8F00BFFEE754F841
:1056A000240F98B1204600F0F3FB01460120002DA5
:1056B00018BF00290BD00120286008E0012006E077
:1056C00009F1010084F84500012000E0012088F381
:1056D000118801B0BDE8F08F2DE9F04F85B004923C
:1056E00098B104460D46002900F0B78000F084FA16
:1056F000A8B9049898B14FF0500080F31188BFF317
:105700006F8FBFF34F8F00BFFEE74FF0500080F365
:105710001188BFF36F8FBFF34F8F00BFFEE704F117
:105720001000019004F1240000900DF108090DF122
:10573000100A4FF000080CE02046FFF72DF800F0AB
:105740001FFCFFF7CDF9A76BFFF7F2F9002F00F070
:105750009280FFF7C5F9D4F838B0BBF1000F27D01D
:10576000226C5AB1D4E902101044E060884201D39F
:105770002068E060E1682846FAF71CFEABF1010002
:10578000A063206970B1019800F082FB50B14EF621
:1057900004504FF08051CEF200000160BFF34F8FF4
:1057A000BFF36F8FFFF7C4F900200126A0B963E0B3
:1057B000049850B1B8F1000F02D14846FFF728FB1A
:1057C0004FF00108012038B956E0FFF7B1F9002683
:1057D0000020002850D000BFFFF7AAF9FFF7DCFB3C
:1057E000FFF77EF994F84400FF2802D1002084F8E6
:1057F000440094F84500FF2802D1002084F84500B9
:10580000FFF796F94846514600F0C2F800287FF4A9
:1058100093AFFFF765F9A76BFFF78AF92FB1204621
:10582000FEF7BAFF00F0ACFB93E704990098FFF78E
:1058300007FB2046FEF7B0FF00F0A2FB00287FF434
:1058400088AF4EF604504FF08051CEF20000016058
:10585000BFF34F8FBFF36F8F7BE7206C00283FF4BF
:1058600045AF4FF0500080F31188BFF36F8FBFF347
:105870004F8F00BFFEE70026304605B0BDE8F08F31
:105880002DE9F04700283CD0054691460E460029F8
:1058900041D0FFF7E1F9EFF311884FF0500080F3AA
:1058A0001188BFF36F8FBFF34F8FAF6B002F3ED0C8
:1058B00095F944402A6C5FFA84FA5AB1D5E902108E
:1058C0001044E860884201D32868E860E9683046FF
:1058D000FAF770FDBAF1FF0FA7F10100A8632BD012
:1058E000FFF79AF8A04238D9BAF17F0F3AD14FF0BA
:1058F000500080F31188BFF36F8FBFF34F8F00BF4D
:10590000FEE74FF0500080F31188BFF36F8FBFF3B5
:105910004F8F00BFFEE7286C0028BAD04FF0500030
:1059200080F31188BFF36F8FBFF34F8FFEE7002026
:1059300088F31188BDE8F08755F8100FD8B12846D4
:1059400000F0A6FA01460120B9F1000F18BF0029A6
:1059500016D188F31188BDE8F087012088F31188FB
:10596000BDE8F0870AF1010085F84400012088F3C2
:105970001188BDE8F087012088F31188BDE8F08721
:105980000120C9F8000088F31188BDE8F087000005
:1059900070B5E8B10D4621B30446FFF7A1F844F60F
:1059A000746EC2F2004EDEF8002029684B1C22D033
:1059B00044F6DC5C2068C2F2004C6368DCF80060EE
:1059C00086421AD09A4218D300202860012424E08D
:1059D0004FF0500080F31188BFF36F8FBFF34F8FEC
:1059E000FEE74FF0500080F31188BFF36F8FBFF3D5
:1059F0004F8F00BFFEE700240FE0D21A914209D971
:105A0000881A2860DCF800002060DEF80000606082
:105A1000002402E0012400202860FFF789F82046D6
:105A200070BD0000000000002DE9F04795008146A0
:105A30002846984692460C46FEF7EAFE88B107468D
:105A40005C20FEF7E5FE48B15C210646FAF7FFFC54
:105A500037634EB94FF0FF30BDE8F0873846FFF7A7
:105A60007FF80026002EF5D0002086F85900306B14
:105A7000A5222946089FFAF7E2FC306B6CB106F1CB
:105A800034010022A35C8B54A35C1BB10F2A02F1EA
:105A90000102F7D3002186F84310382F09D34FF0C5
:105AA000500080F31188BFF36F8FBFF34F8F00BF9B
:105AB000FEE700EB8A00099D0438F76220F0070436
:105AC000301DF764FEF7DCFF06F11800FEF7D8FF83
:105AD000C7F13800B06120464946424636617662D9
